{
    "_format": "hh3-artifact-1",
    "contractName": "ProductIdentification",
    "sourceName": "contracts/Product.sol",
    "abi": [
        {
            "inputs": [],
            "stateMutability": "nonpayable",
            "type": "constructor"
        },
        {
            "inputs": [],
            "name": "ProductNotFound",
            "type": "error"
        },
        {
            "inputs": [],
            "name": "Unauthorized",
            "type": "error"
        },
        {
            "anonymous": false,
            "inputs": [
                {
                    "indexed": true,
                    "internalType": "uint256",
                    "name": "id",
                    "type": "uint256"
                },
                {
                    "indexed": false,
                    "internalType": "string",
                    "name": "name",
                    "type": "string"
                },
                {
                    "indexed": true,
                    "internalType": "address",
                    "name": "manufacturer",
                    "type": "address"
                },
                {
                    "indexed": false,
                    "internalType": "string",
                    "name": "intendedRetailer",
                    "type": "string"
                }
            ],
            "name": "ProductCreated",
            "type": "event"
        },
        {
            "anonymous": false,
            "inputs": [
                {
                    "indexed": true,
                    "internalType": "uint256",
                    "name": "id",
                    "type": "uint256"
                },
                {
                    "indexed": true,
                    "internalType": "address",
                    "name": "retailer",
                    "type": "address"
                },
                {
                    "indexed": false,
                    "internalType": "string",
                    "name": "location",
                    "type": "string"
                }
            ],
            "name": "ProductReceivedByRetailer",
            "type": "event"
        },
        {
            "anonymous": false,
            "inputs": [
                {
                    "indexed": true,
                    "internalType": "uint256",
                    "name": "id",
                    "type": "uint256"
                },
                {
                    "indexed": true,
                    "internalType": "address",
                    "name": "from",
                    "type": "address"
                },
                {
                    "indexed": true,
                    "internalType": "address",
                    "name": "to",
                    "type": "address"
                }
            ],
            "name": "ProductTransferred",
            "type": "event"
        },
        {
            "inputs": [
                {
                    "internalType": "string",
                    "name": "_serial",
                    "type": "string"
                },
                {
                    "internalType": "string",
                    "name": "_name",
                    "type": "string"
                },
                {
                    "internalType": "string",
                    "name": "_brand",
                    "type": "string"
                },
                {
                    "internalType": "string",
                    "name": "_description",
                    "type": "string"
                },
                {
                    "internalType": "string",
                    "name": "_image",
                    "type": "string"
                },
                {
                    "internalType": "string",
                    "name": "_date",
                    "type": "string"
                },
                {
                    "internalType": "string",
                    "name": "_mfgLocation",
                    "type": "string"
                },
                {
                    "internalType": "string",
                    "name": "_mfgSig",
                    "type": "string"
                },
                {
                    "internalType": "string",
                    "name": "_manufacturerName",
                    "type": "string"
                },
                {
                    "internalType": "address[]",
                    "name": "_allowedRetailers",
                    "type": "address[]"
                },
                {
                    "internalType": "string",
                    "name": "_intendedRetailerName",
                    "type": "string"
                }
            ],
            "name": "addProduct",
            "outputs": [],
            "stateMutability": "nonpayable",
            "type": "function"
        },
        {
            "inputs": [
                {
                    "internalType": "uint256",
                    "name": "_productId",
                    "type": "uint256"
                }
            ],
            "name": "getProductHistory",
            "outputs": [
                {
                    "internalType": "address[]",
                    "name": "",
                    "type": "address[]"
                },
                {
                    "internalType": "string[]",
                    "name": "",
                    "type": "string[]"
                },
                {
                    "internalType": "string[]",
                    "name": "",
                    "type": "string[]"
                },
                {
                    "internalType": "string[]",
                    "name": "",
                    "type": "string[]"
                }
            ],
            "stateMutability": "view",
            "type": "function"
        },
        {
            "inputs": [],
            "name": "owner",
            "outputs": [
                {
                    "internalType": "address",
                    "name": "",
                    "type": "address"
                }
            ],
            "stateMutability": "view",
            "type": "function"
        },
        {
            "inputs": [],
            "name": "productCount",
            "outputs": [
                {
                    "internalType": "uint256",
                    "name": "",
                    "type": "uint256"
                }
            ],
            "stateMutability": "view",
            "type": "function"
        },
        {
            "inputs": [
                {
                    "internalType": "uint256",
                    "name": "",
                    "type": "uint256"
                }
            ],
            "name": "products",
            "outputs": [
                {
                    "internalType": "uint256",
                    "name": "id",
                    "type": "uint256"
                },
                {
                    "internalType": "string",
                    "name": "serialNumber",
                    "type": "string"
                },
                {
                    "internalType": "string",
                    "name": "name",
                    "type": "string"
                },
                {
                    "internalType": "string",
                    "name": "brand",
                    "type": "string"
                },
                {
                    "internalType": "string",
                    "name": "description",
                    "type": "string"
                },
                {
                    "internalType": "string",
                    "name": "manufactDate",
                    "type": "string"
                },
                {
                    "internalType": "string",
                    "name": "imageUrl",
                    "type": "string"
                },
                {
                    "internalType": "address",
                    "name": "currentOwner",
                    "type": "address"
                },
                {
                    "internalType": "bool",
                    "name": "isSold",
                    "type": "bool"
                },
                {
                    "internalType": "string",
                    "name": "manufacturerName",
                    "type": "string"
                },
                {
                    "internalType": "string",
                    "name": "manufacturerSig",
                    "type": "string"
                },
                {
                    "internalType": "string",
                    "name": "intendedRetailer",
                    "type": "string"
                },
                {
                    "internalType": "string",
                    "name": "retailerSig",
                    "type": "string"
                }
            ],
            "stateMutability": "view",
            "type": "function"
        },
        {
            "inputs": [
                {
                    "internalType": "uint256",
                    "name": "_productId",
                    "type": "uint256"
                },
                {
                    "internalType": "string",
                    "name": "_retailerLocation",
                    "type": "string"
                },
                {
                    "internalType": "string",
                    "name": "_retSig",
                    "type": "string"
                },
                {
                    "internalType": "string",
                    "name": "_retailerName",
                    "type": "string"
                },
                {
                    "internalType": "string",
                    "name": "_retailerTimestamp",
                    "type": "string"
                }
            ],
            "name": "retailerReceive",
            "outputs": [],
            "stateMutability": "nonpayable",
            "type": "function"
        },
        {
            "inputs": [
                {
                    "internalType": "uint256",
                    "name": "_productId",
                    "type": "uint256"
                }
            ],
            "name": "sellToConsumer",
            "outputs": [],
            "stateMutability": "nonpayable",
            "type": "function"
        }
    ],
    "bytecode": "0x608080604052346026575f80546001600160a01b03191633179055610d4c908161002b8239f35b5f80fdfe60806040526004361015610011575f80fd5b5f3560e01c806313373c6c146104fb57806357a096a11461042f5780637acc0b20146102aa5780638da5cb5b14610283578063c21f9b991461023c578063e0f6ef871461021f5763edf2c03314610066575f80fd5b3461021b5760a036600319011261021b576004356024356001600160401b03811161021b576100999036906004016108b8565b906044356001600160401b03811161021b576100b99036906004016108b8565b6064356001600160401b03811161021b576100d89036906004016108b8565b906084356001600160401b03811161021b576100f89036906004016108b8565b835f52600260205260405f209081541561020c576101213361011c600e8501610c30565b610cd6565b156101fe57600782018054336001600160a01b031982161782557f7b3f569cacc1b7eba464774b5b5fd8c7a119c5052d3cdfebb51005bde90840c0956001600160a01b03909116946101ba94600b9390926101b4929091906101869060108601610a8e565b805460ff60a01b1916905561019e3360088501610baf565b6101ab8a60098501610bf0565b600a8301610bf0565b01610bf0565b604051903390847fcef86d37ba3dc1d682967cde44d8050488734bf53166725b220b4d2e515e9e935f80a460208152806101f933956020830190610924565b0390a3005b6282b42960e81b5f5260045ffd5b6379de4af560e01b5f5260045ffd5b5f80fd5b3461021b575f36600319011261021b576020600154604051908152f35b3461021b57602036600319011261021b576004355f9081526002602052604090206007018054336001600160a01b038216036101fe5760ff60a01b1916600160a01b179055005b3461021b575f36600319011261021b575f546040516001600160a01b039091168152602090f35b3461021b57602036600319011261021b576004355f52600260205260405f208054600182016102d8906109d8565b916102e5600282016109d8565b906102f2600382016109d8565b6102fe600483016109d8565b61030a600584016109d8565b610316600685016109d8565b600785015491610328600c87016109d8565b93610335600d88016109d8565b95610342600f89016109d8565b9760100161034f906109d8565b986040519b8c9b8c5260208c016101a090526101a08c0161036f91610924565b8b810360408d015261038091610924565b8a810360608c015261039191610924565b89810360808b01526103a291610924565b88810360a08a01526103b391610924565b87810360c08901526103c491610924565b90600160a01b60019003811660e088015260a01c60ff1615156101008701528581036101208701526103f591610924565b84810361014086015261040791610924565b83810361016085015261041991610924565b82810361018084015261042b91610924565b0390f35b3461021b57602036600319011261021b576004355f52600260205260405f2061045a60088201610c30565b9061046760098201610c81565b90610480600b610479600a8401610c81565b9201610c81565b906040519260808401608085528551809152602060a086019601905f5b8181106104dc57868061042b886104ce896104c08e8b8782036020890152610948565b908582036040870152610948565b908382036060850152610948565b82516001600160a01b031688526020978801979092019160010161049d565b3461021b5761016036600319011261021b576004356001600160401b03811161021b5761052c9036906004016108b8565b6024356001600160401b03811161021b5761054b9036906004016108b8565b6044356001600160401b03811161021b5761056a9036906004016108b8565b916064356001600160401b03811161021b5761058a9036906004016108b8565b906084356001600160401b03811161021b576105aa9036906004016108b8565b60a4356001600160401b03811161021b576105c99036906004016108b8565b9260c4356001600160401b03811161021b576105e99036906004016108b8565b9060e4356001600160401b03811161021b576106099036906004016108b8565b92610104356001600160401b03811161021b5761062a9036906004016108b8565b9361012435916001600160401b03831161021b573660238401121561021b578260040135936106588561090d565b936106666040519586610897565b85855260208501906024829760051b8201019036821161021b57602401915b81831061087757505050610144356001600160401b03811161021b576106af9036906004016108b8565b9a6001545f198114610863576001019889600155895f52600260205260405f20998a5560018a01906106e091610a8e565b6106ed8b60028b01610a8e565b6106fa9060038a01610a8e565b6107079060048901610a8e565b6107149060068801610a8e565b6107218760058801610a8e565b6007860180546001600160a81b0319163360ff60a01b191617905561074990600d8701610a8e565b61075684600c8701610a8e565b600e85019051916001600160401b03831161084f57600160401b831161084f578154838355808410610833575b50905f5260205f205f5b8381106108165789896107c88a600b8b6101b48c6101ab8d6107b28a600f8701610a8e565b6107bf3360088701610baf565b60098501610bf0565b7f1267dd4d0d264b3bf6bf5e39465603994624f59a6abf77565f6df04750ca7e92610807600154926101f9604051928392604084526040840190610924565b82810360208401523396610924565b82516001600160a01b03168183015560209092019160010161078d565b61084990835f528460205f209182019101610a78565b89610783565b634e487b7160e01b5f52604160045260245ffd5b634e487b7160e01b5f52601160045260245ffd5b82356001600160a01b038116810361021b57815260209283019201610685565b90601f801991011681019081106001600160401b0382111761084f57604052565b81601f8201121561021b578035906001600160401b03821161084f57604051926108ec601f8401601f191660200185610897565b8284526020838301011161021b57815f926020809301838601378301015290565b6001600160401b03811161084f5760051b60200190565b805180835260209291819084018484015e5f828201840152601f01601f1916010190565b9080602083519182815201916020808360051b8301019401925f915b83831061097357505050505090565b9091929394602080610991600193601f198682030187528951610924565b97019301930191939290610964565b90600182811c921680156109ce575b60208310146109ba57565b634e487b7160e01b5f52602260045260245ffd5b91607f16916109af565b9060405191825f8254926109eb846109a0565b8084529360018116908115610a565750600114610a12575b50610a1092500383610897565b565b90505f9291925260205f20905f915b818310610a3a575050906020610a10928201015f610a03565b6020919350806001915483858901015201910190918492610a21565b905060209250610a1094915060ff191682840152151560051b8201015f610a03565b818110610a83575050565b5f8155600101610a78565b91909182516001600160401b03811161084f57610aab82546109a0565b601f8111610b4b575b506020601f8211600114610aed57819293945f92610ae2575b50508160011b915f199060031b1c1916179055565b015190505f80610acd565b601f19821690835f52805f20915f5b818110610b3357509583600195969710610b1b575b505050811b019055565b01515f1960f88460031b161c191690555f8080610b11565b9192602060018192868b015181550194019201610afc565b610b7690835f5260205f20601f840160051c81019160208510610b7c575b601f0160051c0190610a78565b5f610ab4565b9091508190610b69565b8054821015610b9b575f5260205f2001905f90565b634e487b7160e01b5f52603260045260245ffd5b8054600160401b81101561084f57610bcc91600182018155610b86565b81546001600160a01b0393841660039290921b91821b9390911b1916919091179055565b8054600160401b81101561084f57610c0d91600182018155610b86565b919091610c1d57610a1091610a8e565b634e487b7160e01b5f525f60045260245ffd5b90604051918281549182825260208201905f5260205f20925f5b818110610c5f575050610a1092500383610897565b84546001600160a01b0316835260019485019487945060209093019201610c4a565b908154610c8d8161090d565b92610c9b6040519485610897565b81845260208401905f5260205f205f915b838310610cb95750505050565b600160208192610cc8856109d8565b815201920192019190610cac565b905f5b8251811015610d0f57600581901b8301602001516001600160a01b03838116911614610d0757600101610cd9565b505050600190565b5050505f9056fea2646970667358221220c0b200031e660232edb893b3e404fb48db68a8db09ba9bc6b4919f0dfef4c3d764736f6c634300081c0033",
    "linkReferences": {},
    "deployedLinkReferences": {},
    "immutableReferences": {},
    "inputSourceName": "project/contracts/Product.sol",
    "buildInfoId": "solc-0_8_28-960618cfd3e630854b9e59dc9a3035fa4ea4130e"
}