{
    "_format": "hh3-artifact-1",
    "contractName": "ProductIdentification",
    "sourceName": "contracts/Product.sol",
    "abi": [
        {
            "inputs": [],
            "stateMutability": "nonpayable",
            "type": "constructor"
        },
        {
            "inputs": [],
            "name": "ProductNotFound",
            "type": "error"
        },
        {
            "inputs": [],
            "name": "Unauthorized",
            "type": "error"
        },
        {
            "anonymous": false,
            "inputs": [
                {
                    "indexed": true,
                    "internalType": "uint256",
                    "name": "id",
                    "type": "uint256"
                },
                {
                    "indexed": false,
                    "internalType": "string",
                    "name": "name",
                    "type": "string"
                },
                {
                    "indexed": true,
                    "internalType": "address",
                    "name": "manufacturer",
                    "type": "address"
                }
            ],
            "name": "ProductCreated",
            "type": "event"
        },
        {
            "anonymous": false,
            "inputs": [
                {
                    "indexed": true,
                    "internalType": "uint256",
                    "name": "id",
                    "type": "uint256"
                },
                {
                    "indexed": true,
                    "internalType": "address",
                    "name": "retailer",
                    "type": "address"
                },
                {
                    "indexed": false,
                    "internalType": "string",
                    "name": "location",
                    "type": "string"
                }
            ],
            "name": "ProductReceivedByRetailer",
            "type": "event"
        },
        {
            "anonymous": false,
            "inputs": [
                {
                    "indexed": true,
                    "internalType": "uint256",
                    "name": "id",
                    "type": "uint256"
                },
                {
                    "indexed": true,
                    "internalType": "address",
                    "name": "from",
                    "type": "address"
                },
                {
                    "indexed": true,
                    "internalType": "address",
                    "name": "to",
                    "type": "address"
                }
            ],
            "name": "ProductTransferred",
            "type": "event"
        },
        {
            "inputs": [
                {
                    "internalType": "string",
                    "name": "_serial",
                    "type": "string"
                },
                {
                    "internalType": "string",
                    "name": "_name",
                    "type": "string"
                },
                {
                    "internalType": "string",
                    "name": "_brand",
                    "type": "string"
                },
                {
                    "internalType": "string",
                    "name": "_description",
                    "type": "string"
                },
                {
                    "internalType": "string",
                    "name": "_image",
                    "type": "string"
                },
                {
                    "internalType": "string",
                    "name": "_date",
                    "type": "string"
                },
                {
                    "internalType": "string",
                    "name": "_mfgLocation",
                    "type": "string"
                },
                {
                    "internalType": "string",
                    "name": "_mfgSig",
                    "type": "string"
                },
                {
                    "internalType": "string",
                    "name": "_manufacturerName",
                    "type": "string"
                },
                {
                    "internalType": "address[]",
                    "name": "_allowedRetailers",
                    "type": "address[]"
                }
            ],
            "name": "addProduct",
            "outputs": [],
            "stateMutability": "nonpayable",
            "type": "function"
        },
        {
            "inputs": [
                {
                    "internalType": "uint256",
                    "name": "_productId",
                    "type": "uint256"
                }
            ],
            "name": "getProductHistory",
            "outputs": [
                {
                    "internalType": "address[]",
                    "name": "",
                    "type": "address[]"
                },
                {
                    "internalType": "string[]",
                    "name": "",
                    "type": "string[]"
                },
                {
                    "internalType": "string[]",
                    "name": "",
                    "type": "string[]"
                },
                {
                    "internalType": "string[]",
                    "name": "",
                    "type": "string[]"
                }
            ],
            "stateMutability": "view",
            "type": "function"
        },
        {
            "inputs": [],
            "name": "owner",
            "outputs": [
                {
                    "internalType": "address",
                    "name": "",
                    "type": "address"
                }
            ],
            "stateMutability": "view",
            "type": "function"
        },
        {
            "inputs": [],
            "name": "productCount",
            "outputs": [
                {
                    "internalType": "uint256",
                    "name": "",
                    "type": "uint256"
                }
            ],
            "stateMutability": "view",
            "type": "function"
        },
        {
            "inputs": [
                {
                    "internalType": "uint256",
                    "name": "",
                    "type": "uint256"
                }
            ],
            "name": "products",
            "outputs": [
                {
                    "internalType": "uint256",
                    "name": "id",
                    "type": "uint256"
                },
                {
                    "internalType": "string",
                    "name": "serialNumber",
                    "type": "string"
                },
                {
                    "internalType": "string",
                    "name": "name",
                    "type": "string"
                },
                {
                    "internalType": "string",
                    "name": "brand",
                    "type": "string"
                },
                {
                    "internalType": "string",
                    "name": "description",
                    "type": "string"
                },
                {
                    "internalType": "string",
                    "name": "manufactDate",
                    "type": "string"
                },
                {
                    "internalType": "string",
                    "name": "imageUrl",
                    "type": "string"
                },
                {
                    "internalType": "address",
                    "name": "currentOwner",
                    "type": "address"
                },
                {
                    "internalType": "bool",
                    "name": "isSold",
                    "type": "bool"
                },
                {
                    "internalType": "string",
                    "name": "manufacturerName",
                    "type": "string"
                },
                {
                    "internalType": "string",
                    "name": "manufacturerSig",
                    "type": "string"
                },
                {
                    "internalType": "string",
                    "name": "retailerSig",
                    "type": "string"
                }
            ],
            "stateMutability": "view",
            "type": "function"
        },
        {
            "inputs": [
                {
                    "internalType": "uint256",
                    "name": "_productId",
                    "type": "uint256"
                },
                {
                    "internalType": "string",
                    "name": "_retailerLocation",
                    "type": "string"
                },
                {
                    "internalType": "string",
                    "name": "_retSig",
                    "type": "string"
                },
                {
                    "internalType": "string",
                    "name": "_retailerName",
                    "type": "string"
                },
                {
                    "internalType": "string",
                    "name": "_retailerTimestamp",
                    "type": "string"
                }
            ],
            "name": "retailerReceive",
            "outputs": [],
            "stateMutability": "nonpayable",
            "type": "function"
        },
        {
            "inputs": [
                {
                    "internalType": "uint256",
                    "name": "_productId",
                    "type": "uint256"
                }
            ],
            "name": "sellToConsumer",
            "outputs": [],
            "stateMutability": "nonpayable",
            "type": "function"
        }
    ],
    "bytecode": "0x6080604052348015600e575f5ffd5b50335f5f6101000a81548173ffffffffffffffffffffffffffffffffffffffff021916908373ffffffffffffffffffffffffffffffffffffffff160217905550611f208061005b5f395ff3fe608060405234801561000f575f5ffd5b506004361061007b575f3560e01c80638da5cb5b116100595780638da5cb5b14610109578063c21f9b9914610127578063e0f6ef8714610143578063edf2c033146101615761007b565b80630acb3dd71461007f57806357a096a11461009b5780637acc0b20146100ce575b5f5ffd5b6100996004803603810190610094919061144d565b61017d565b005b6100b560048036038101906100b09190611671565b610417565b6040516100c5949392919061186e565b60405180910390f35b6100e860048036038101906100e39190611671565b610740565b6040516101009c9b9a9998979695949392919061194d565b60405180910390f35b610111610c7e565b60405161011e9190611a44565b60405180910390f35b610141600480360381019061013c9190611671565b610ca2565b005b61014b610d5f565b6040516101589190611a5d565b60405180910390f35b61017b60048036038101906101769190611a76565b610d65565b005b60015f81548092919061018f90611b8a565b91905055505f60025f60015481526020019081526020015f209050600154815f01819055508a8160010190816101c59190611dce565b50898160020190816101d79190611dce565b50888160030190816101e99190611dce565b50878160040190816101fb9190611dce565b508681600601908161020d9190611dce565b508581600501908161021f9190611dce565b5033816007015f6101000a81548173ffffffffffffffffffffffffffffffffffffffff021916908373ffffffffffffffffffffffffffffffffffffffff1602179055505f8160070160146101000a81548160ff0219169083151502179055508381600d01908161028f9190611dce565b508281600c0190816102a19190611dce565b508181600e0190805190602001906102ba929190611140565b508060080133908060018154018082558091505060019003905f5260205f20015f9091909190916101000a81548173ffffffffffffffffffffffffffffffffffffffff021916908373ffffffffffffffffffffffffffffffffffffffff1602179055508060090185908060018154018082558091505060019003905f5260205f20015f9091909190915090816103509190611dce565b5080600a0183908060018154018082558091505060019003905f5260205f20015f9091909190915090816103849190611dce565b5080600b0186908060018154018082558091505060019003905f5260205f20015f9091909190915090816103b89190611dce565b503373ffffffffffffffffffffffffffffffffffffffff166001547faf6ffb6277511513e7d579327cc1fc57f0266df2fb11a60b13487b8c9cd2c3888c6040516104029190611e9d565b60405180910390a35050505050505050505050565b6060806060805f60025f8781526020019081526020015f209050806008018160090182600a0183600b01838054806020026020016040519081016040528092919081815260200182805480156104bf57602002820191905f5260205f20905b815f9054906101000a900473ffffffffffffffffffffffffffffffffffffffff1673ffffffffffffffffffffffffffffffffffffffff1681526020019060010190808311610476575b5050505050935082805480602002602001604051908101604052809291908181526020015f905b8282101561058e578382905f5260205f2001805461050390611bfe565b80601f016020809104026020016040519081016040528092919081815260200182805461052f90611bfe565b801561057a5780601f106105515761010080835404028352916020019161057a565b820191905f5260205f20905b81548152906001019060200180831161055d57829003601f168201915b5050505050815260200190600101906104e6565b50505050925081805480602002602001604051908101604052809291908181526020015f905b8282101561065c578382905f5260205f200180546105d190611bfe565b80601f01602080910402602001604051908101604052809291908181526020018280546105fd90611bfe565b80156106485780601f1061061f57610100808354040283529160200191610648565b820191905f5260205f20905b81548152906001019060200180831161062b57829003601f168201915b5050505050815260200190600101906105b4565b50505050915080805480602002602001604051908101604052809291908181526020015f905b8282101561072a578382905f5260205f2001805461069f90611bfe565b80601f01602080910402602001604051908101604052809291908181526020018280546106cb90611bfe565b80156107165780601f106106ed57610100808354040283529160200191610716565b820191905f5260205f20905b8154815290600101906020018083116106f957829003601f168201915b505050505081526020019060010190610682565b5050505090509450945094509450509193509193565b6002602052805f5260405f205f91509050805f01549080600101805461076590611bfe565b80601f016020809104026020016040519081016040528092919081815260200182805461079190611bfe565b80156107dc5780601f106107b3576101008083540402835291602001916107dc565b820191905f5260205f20905b8154815290600101906020018083116107bf57829003601f168201915b5050505050908060020180546107f190611bfe565b80601f016020809104026020016040519081016040528092919081815260200182805461081d90611bfe565b80156108685780601f1061083f57610100808354040283529160200191610868565b820191905f5260205f20905b81548152906001019060200180831161084b57829003601f168201915b50505050509080600301805461087d90611bfe565b80601f01602080910402602001604051908101604052809291908181526020018280546108a990611bfe565b80156108f45780601f106108cb576101008083540402835291602001916108f4565b820191905f5260205f20905b8154815290600101906020018083116108d757829003601f168201915b50505050509080600401805461090990611bfe565b80601f016020809104026020016040519081016040528092919081815260200182805461093590611bfe565b80156109805780601f1061095757610100808354040283529160200191610980565b820191905f5260205f20905b81548152906001019060200180831161096357829003601f168201915b50505050509080600501805461099590611bfe565b80601f01602080910402602001604051908101604052809291908181526020018280546109c190611bfe565b8015610a0c5780601f106109e357610100808354040283529160200191610a0c565b820191905f5260205f20905b8154815290600101906020018083116109ef57829003601f168201915b505050505090806006018054610a2190611bfe565b80601f0160208091040260200160405190810160405280929190818152602001828054610a4d90611bfe565b8015610a985780601f10610a6f57610100808354040283529160200191610a98565b820191905f5260205f20905b815481529060010190602001808311610a7b57829003601f168201915b505050505090806007015f9054906101000a900473ffffffffffffffffffffffffffffffffffffffff16908060070160149054906101000a900460ff169080600c018054610ae590611bfe565b80601f0160208091040260200160405190810160405280929190818152602001828054610b1190611bfe565b8015610b5c5780601f10610b3357610100808354040283529160200191610b5c565b820191905f5260205f20905b815481529060010190602001808311610b3f57829003601f168201915b50505050509080600d018054610b7190611bfe565b80601f0160208091040260200160405190810160405280929190818152602001828054610b9d90611bfe565b8015610be85780601f10610bbf57610100808354040283529160200191610be8565b820191905f5260205f20905b815481529060010190602001808311610bcb57829003601f168201915b50505050509080600f018054610bfd90611bfe565b80601f0160208091040260200160405190810160405280929190818152602001828054610c2990611bfe565b8015610c745780601f10610c4b57610100808354040283529160200191610c74565b820191905f5260205f20905b815481529060010190602001808311610c5757829003601f168201915b505050505090508c565b5f5f9054906101000a900473ffffffffffffffffffffffffffffffffffffffff1681565b5f60025f8381526020019081526020015f2090503373ffffffffffffffffffffffffffffffffffffffff16816007015f9054906101000a900473ffffffffffffffffffffffffffffffffffffffff1673ffffffffffffffffffffffffffffffffffffffff1614610d3e576040517f82b4290000000000000000000000000000000000000000000000000000000000815260040160405180910390fd5b60018160070160146101000a81548160ff0219169083151502179055505050565b60015481565b5f60025f8781526020019081526020015f2090505f815f015403610db5576040517f79de4af500000000000000000000000000000000000000000000000000000000815260040160405180910390fd5b610e4481600e01805480602002602001604051908101604052809291908181526020018280548015610e3957602002820191905f5260205f20905b815f9054906101000a900473ffffffffffffffffffffffffffffffffffffffff1673ffffffffffffffffffffffffffffffffffffffff1681526020019060010190808311610df0575b5050505050336110c2565b610e7a576040517f82b4290000000000000000000000000000000000000000000000000000000000815260040160405180910390fd5b5f816007015f9054906101000a900473ffffffffffffffffffffffffffffffffffffffff16905033826007015f6101000a81548173ffffffffffffffffffffffffffffffffffffffff021916908373ffffffffffffffffffffffffffffffffffffffff1602179055508482600f019081610ef49190611dce565b505f8260070160146101000a81548160ff0219169083151502179055508160080133908060018154018082558091505060019003905f5260205f20015f9091909190916101000a81548173ffffffffffffffffffffffffffffffffffffffff021916908373ffffffffffffffffffffffffffffffffffffffff1602179055508160090186908060018154018082558091505060019003905f5260205f20015f909190919091509081610fa69190611dce565b5081600a0184908060018154018082558091505060019003905f5260205f20015f909190919091509081610fda9190611dce565b5081600b0183908060018154018082558091505060019003905f5260205f20015f90919091909150908161100e9190611dce565b503373ffffffffffffffffffffffffffffffffffffffff168173ffffffffffffffffffffffffffffffffffffffff16887fcef86d37ba3dc1d682967cde44d8050488734bf53166725b220b4d2e515e9e9360405160405180910390a43373ffffffffffffffffffffffffffffffffffffffff16877f7b3f569cacc1b7eba464774b5b5fd8c7a119c5052d3cdfebb51005bde90840c0886040516110b19190611e9d565b60405180910390a350505050505050565b5f5f5f90505b8351811015611135578273ffffffffffffffffffffffffffffffffffffffff168482815181106110fb576110fa611ebd565b5b602002602001015173ffffffffffffffffffffffffffffffffffffffff160361112857600191505061113a565b80806001019150506110c8565b505f90505b92915050565b828054828255905f5260205f209081019282156111b6579160200282015b828111156111b5578251825f6101000a81548173ffffffffffffffffffffffffffffffffffffffff021916908373ffffffffffffffffffffffffffffffffffffffff1602179055509160200191906001019061115e565b5b5090506111c391906111c7565b5090565b5b808211156111de575f815f9055506001016111c8565b5090565b5f604051905090565b5f5ffd5b5f5ffd5b5f5ffd5b5f5ffd5b5f601f19601f8301169050919050565b7f4e487b71000000000000000000000000000000000000000000000000000000005f52604160045260245ffd5b611241826111fb565b810181811067ffffffffffffffff821117156112605761125f61120b565b5b80604052505050565b5f6112726111e2565b905061127e8282611238565b919050565b5f67ffffffffffffffff82111561129d5761129c61120b565b5b6112a6826111fb565b9050602081019050919050565b828183375f83830152505050565b5f6112d36112ce84611283565b611269565b9050828152602081018484840111156112ef576112ee6111f7565b5b6112fa8482856112b3565b509392505050565b5f82601f830112611316576113156111f3565b5b81356113268482602086016112c1565b91505092915050565b5f67ffffffffffffffff8211156113495761134861120b565b5b602082029050602081019050919050565b5f5ffd5b5f73ffffffffffffffffffffffffffffffffffffffff82169050919050565b5f6113878261135e565b9050919050565b6113978161137d565b81146113a1575f5ffd5b50565b5f813590506113b28161138e565b92915050565b5f6113ca6113c58461132f565b611269565b905080838252602082019050602084028301858111156113ed576113ec61135a565b5b835b81811015611416578061140288826113a4565b8452602084019350506020810190506113ef565b5050509392505050565b5f82601f830112611434576114336111f3565b5b81356114448482602086016113b8565b91505092915050565b5f5f5f5f5f5f5f5f5f5f6101408b8d03121561146c5761146b6111eb565b5b5f8b013567ffffffffffffffff811115611489576114886111ef565b5b6114958d828e01611302565b9a505060208b013567ffffffffffffffff8111156114b6576114b56111ef565b5b6114c28d828e01611302565b99505060408b013567ffffffffffffffff8111156114e3576114e26111ef565b5b6114ef8d828e01611302565b98505060608b013567ffffffffffffffff8111156115105761150f6111ef565b5b61151c8d828e01611302565b97505060808b013567ffffffffffffffff81111561153d5761153c6111ef565b5b6115498d828e01611302565b96505060a08b013567ffffffffffffffff81111561156a576115696111ef565b5b6115768d828e01611302565b95505060c08b013567ffffffffffffffff811115611597576115966111ef565b5b6115a38d828e01611302565b94505060e08b013567ffffffffffffffff8111156115c4576115c36111ef565b5b6115d08d828e01611302565b9350506101008b013567ffffffffffffffff8111156115f2576115f16111ef565b5b6115fe8d828e01611302565b9250506101208b013567ffffffffffffffff8111156116205761161f6111ef565b5b61162c8d828e01611420565b9150509295989b9194979a5092959850565b5f819050919050565b6116508161163e565b811461165a575f5ffd5b50565b5f8135905061166b81611647565b92915050565b5f60208284031215611686576116856111eb565b5b5f6116938482850161165d565b91505092915050565b5f81519050919050565b5f82825260208201905092915050565b5f819050602082019050919050565b6116ce8161137d565b82525050565b5f6116df83836116c5565b60208301905092915050565b5f602082019050919050565b5f6117018261169c565b61170b81856116a6565b9350611716836116b6565b805f5b8381101561174657815161172d88826116d4565b9750611738836116eb565b925050600181019050611719565b5085935050505092915050565b5f81519050919050565b5f82825260208201905092915050565b5f819050602082019050919050565b5f81519050919050565b5f82825260208201905092915050565b8281835e5f83830152505050565b5f6117ae8261177c565b6117b88185611786565b93506117c8818560208601611796565b6117d1816111fb565b840191505092915050565b5f6117e783836117a4565b905092915050565b5f602082019050919050565b5f61180582611753565b61180f818561175d565b9350836020820285016118218561176d565b805f5b8581101561185c578484038952815161183d85826117dc565b9450611848836117ef565b925060208a01995050600181019050611824565b50829750879550505050505092915050565b5f6080820190508181035f83015261188681876116f7565b9050818103602083015261189a81866117fb565b905081810360408301526118ae81856117fb565b905081810360608301526118c281846117fb565b905095945050505050565b6118d68161163e565b82525050565b5f82825260208201905092915050565b5f6118f68261177c565b61190081856118dc565b9350611910818560208601611796565b611919816111fb565b840191505092915050565b61192d8161137d565b82525050565b5f8115159050919050565b61194781611933565b82525050565b5f610180820190506119615f83018f6118cd565b8181036020830152611973818e6118ec565b90508181036040830152611987818d6118ec565b9050818103606083015261199b818c6118ec565b905081810360808301526119af818b6118ec565b905081810360a08301526119c3818a6118ec565b905081810360c08301526119d781896118ec565b90506119e660e0830188611924565b6119f461010083018761193e565b818103610120830152611a0781866118ec565b9050818103610140830152611a1c81856118ec565b9050818103610160830152611a3181846118ec565b90509d9c50505050505050505050505050565b5f602082019050611a575f830184611924565b92915050565b5f602082019050611a705f8301846118cd565b92915050565b5f5f5f5f5f60a08688031215611a8f57611a8e6111eb565b5b5f611a9c8882890161165d565b955050602086013567ffffffffffffffff811115611abd57611abc6111ef565b5b611ac988828901611302565b945050604086013567ffffffffffffffff811115611aea57611ae96111ef565b5b611af688828901611302565b935050606086013567ffffffffffffffff811115611b1757611b166111ef565b5b611b2388828901611302565b925050608086013567ffffffffffffffff811115611b4457611b436111ef565b5b611b5088828901611302565b9150509295509295909350565b7f4e487b71000000000000000000000000000000000000000000000000000000005f52601160045260245ffd5b5f611b948261163e565b91507fffffffffffffffffffffffffffffffffffffffffffffffffffffffffffffffff8203611bc657611bc5611b5d565b5b600182019050919050565b7f4e487b71000000000000000000000000000000000000000000000000000000005f52602260045260245ffd5b5f6002820490506001821680611c1557607f821691505b602082108103611c2857611c27611bd1565b5b50919050565b5f819050815f5260205f209050919050565b5f6020601f8301049050919050565b5f82821b905092915050565b5f60088302611c8a7fffffffffffffffffffffffffffffffffffffffffffffffffffffffffffffffff82611c4f565b611c948683611c4f565b95508019841693508086168417925050509392505050565b5f819050919050565b5f611ccf611cca611cc58461163e565b611cac565b61163e565b9050919050565b5f819050919050565b611ce883611cb5565b611cfc611cf482611cd6565b848454611c5b565b825550505050565b5f5f905090565b611d13611d04565b611d1e818484611cdf565b505050565b5b81811015611d4157611d365f82611d0b565b600181019050611d24565b5050565b601f821115611d8657611d5781611c2e565b611d6084611c40565b81016020851015611d6f578190505b611d83611d7b85611c40565b830182611d23565b50505b505050565b5f82821c905092915050565b5f611da65f1984600802611d8b565b1980831691505092915050565b5f611dbe8383611d97565b9150826002028217905092915050565b611dd78261177c565b67ffffffffffffffff811115611df057611def61120b565b5b611dfa8254611bfe565b611e05828285611d45565b5f60209050601f831160018114611e36575f8415611e24578287015190505b611e2e8582611db3565b865550611e95565b601f198416611e4486611c2e565b5f5b82811015611e6b57848901518255600182019150602085019450602081019050611e46565b86831015611e885784890151611e84601f891682611d97565b8355505b6001600288020188555050505b505050505050565b5f6020820190508181035f830152611eb581846118ec565b905092915050565b7f4e487b71000000000000000000000000000000000000000000000000000000005f52603260045260245ffdfea26469706673582212200606d5b6ab69dffb9cfc94ea93553ac233616270ca59c66cfb49349b0a9fd1a864736f6c634300081c0033",
    "linkReferences": {},
    "deployedLinkReferences": {},
    "immutableReferences": {},
    "inputSourceName": "project/contracts/Product.sol",
    "buildInfoId": "solc-0_8_28-9c2729025cbf9ae16d25e683d3a47e540494d7a3"
}