{
    "_format": "hh3-artifact-1",
    "contractName": "ProductIdentification",
    "sourceName": "contracts/Product.sol",
    "abi": [
        {
            "inputs": [],
            "stateMutability": "nonpayable",
            "type": "constructor"
        },
        {
            "inputs": [],
            "name": "ProductAlreadySold",
            "type": "error"
        },
        {
            "inputs": [],
            "name": "ProductNotFound",
            "type": "error"
        },
        {
            "inputs": [],
            "name": "SerialAlreadyUsed",
            "type": "error"
        },
        {
            "inputs": [],
            "name": "Unauthorized",
            "type": "error"
        },
        {
            "anonymous": false,
            "inputs": [
                {
                    "indexed": true,
                    "internalType": "address",
                    "name": "manufacturer",
                    "type": "address"
                }
            ],
            "name": "ManufacturerApproved",
            "type": "event"
        },
        {
            "anonymous": false,
            "inputs": [
                {
                    "indexed": true,
                    "internalType": "uint256",
                    "name": "id",
                    "type": "uint256"
                },
                {
                    "indexed": true,
                    "internalType": "string",
                    "name": "serial",
                    "type": "string"
                },
                {
                    "indexed": true,
                    "internalType": "address",
                    "name": "manufacturer",
                    "type": "address"
                },
                {
                    "indexed": false,
                    "internalType": "string",
                    "name": "intendedRetailer",
                    "type": "string"
                }
            ],
            "name": "ProductCreated",
            "type": "event"
        },
        {
            "anonymous": false,
            "inputs": [
                {
                    "indexed": true,
                    "internalType": "uint256",
                    "name": "id",
                    "type": "uint256"
                }
            ],
            "name": "ProductSold",
            "type": "event"
        },
        {
            "anonymous": false,
            "inputs": [
                {
                    "indexed": true,
                    "internalType": "uint256",
                    "name": "id",
                    "type": "uint256"
                },
                {
                    "indexed": true,
                    "internalType": "address",
                    "name": "from",
                    "type": "address"
                },
                {
                    "indexed": true,
                    "internalType": "address",
                    "name": "to",
                    "type": "address"
                }
            ],
            "name": "ProductTransferred",
            "type": "event"
        },
        {
            "inputs": [
                {
                    "internalType": "string",
                    "name": "_serial",
                    "type": "string"
                },
                {
                    "internalType": "string",
                    "name": "_name",
                    "type": "string"
                },
                {
                    "internalType": "string",
                    "name": "_brand",
                    "type": "string"
                },
                {
                    "internalType": "string",
                    "name": "_description",
                    "type": "string"
                },
                {
                    "internalType": "string",
                    "name": "_image",
                    "type": "string"
                },
                {
                    "internalType": "string",
                    "name": "_date",
                    "type": "string"
                },
                {
                    "internalType": "string",
                    "name": "_location",
                    "type": "string"
                },
                {
                    "internalType": "string",
                    "name": "_manufacturerSig",
                    "type": "string"
                },
                {
                    "internalType": "string",
                    "name": "_manufacturerName",
                    "type": "string"
                },
                {
                    "internalType": "address[]",
                    "name": "_allowedRetailers",
                    "type": "address[]"
                },
                {
                    "internalType": "string",
                    "name": "_intendedRetailer",
                    "type": "string"
                }
            ],
            "name": "addProduct",
            "outputs": [],
            "stateMutability": "nonpayable",
            "type": "function"
        },
        {
            "inputs": [
                {
                    "internalType": "address",
                    "name": "_manufacturer",
                    "type": "address"
                }
            ],
            "name": "approveManufacturer",
            "outputs": [],
            "stateMutability": "nonpayable",
            "type": "function"
        },
        {
            "inputs": [
                {
                    "internalType": "address",
                    "name": "",
                    "type": "address"
                }
            ],
            "name": "approvedManufacturers",
            "outputs": [
                {
                    "internalType": "bool",
                    "name": "",
                    "type": "bool"
                }
            ],
            "stateMutability": "view",
            "type": "function"
        },
        {
            "inputs": [
                {
                    "internalType": "uint256",
                    "name": "_productId",
                    "type": "uint256"
                }
            ],
            "name": "getProductHistory",
            "outputs": [
                {
                    "internalType": "address[]",
                    "name": "",
                    "type": "address[]"
                },
                {
                    "internalType": "string[]",
                    "name": "",
                    "type": "string[]"
                },
                {
                    "internalType": "string[]",
                    "name": "",
                    "type": "string[]"
                },
                {
                    "internalType": "string[]",
                    "name": "",
                    "type": "string[]"
                }
            ],
            "stateMutability": "view",
            "type": "function"
        },
        {
            "inputs": [],
            "name": "owner",
            "outputs": [
                {
                    "internalType": "address",
                    "name": "",
                    "type": "address"
                }
            ],
            "stateMutability": "view",
            "type": "function"
        },
        {
            "inputs": [],
            "name": "productCount",
            "outputs": [
                {
                    "internalType": "uint256",
                    "name": "",
                    "type": "uint256"
                }
            ],
            "stateMutability": "view",
            "type": "function"
        },
        {
            "inputs": [
                {
                    "internalType": "uint256",
                    "name": "",
                    "type": "uint256"
                }
            ],
            "name": "products",
            "outputs": [
                {
                    "internalType": "uint256",
                    "name": "id",
                    "type": "uint256"
                },
                {
                    "internalType": "string",
                    "name": "serialNumber",
                    "type": "string"
                },
                {
                    "internalType": "string",
                    "name": "name",
                    "type": "string"
                },
                {
                    "internalType": "string",
                    "name": "brand",
                    "type": "string"
                },
                {
                    "internalType": "string",
                    "name": "description",
                    "type": "string"
                },
                {
                    "internalType": "string",
                    "name": "manufactDate",
                    "type": "string"
                },
                {
                    "internalType": "string",
                    "name": "imageUrl",
                    "type": "string"
                },
                {
                    "internalType": "address",
                    "name": "currentOwner",
                    "type": "address"
                },
                {
                    "internalType": "bool",
                    "name": "isSold",
                    "type": "bool"
                },
                {
                    "internalType": "string",
                    "name": "manufacturerName",
                    "type": "string"
                },
                {
                    "internalType": "string",
                    "name": "manufacturerSig",
                    "type": "string"
                },
                {
                    "internalType": "string",
                    "name": "intendedRetailer",
                    "type": "string"
                },
                {
                    "internalType": "string",
                    "name": "retailerSig",
                    "type": "string"
                }
            ],
            "stateMutability": "view",
            "type": "function"
        },
        {
            "inputs": [
                {
                    "internalType": "uint256",
                    "name": "_productId",
                    "type": "uint256"
                },
                {
                    "internalType": "string",
                    "name": "_location",
                    "type": "string"
                },
                {
                    "internalType": "string",
                    "name": "_retailerSig",
                    "type": "string"
                },
                {
                    "internalType": "string",
                    "name": "_retailerName",
                    "type": "string"
                },
                {
                    "internalType": "string",
                    "name": "_timestamp",
                    "type": "string"
                }
            ],
            "name": "retailerReceive",
            "outputs": [],
            "stateMutability": "nonpayable",
            "type": "function"
        },
        {
            "inputs": [
                {
                    "internalType": "uint256",
                    "name": "_productId",
                    "type": "uint256"
                }
            ],
            "name": "sellToConsumer",
            "outputs": [],
            "stateMutability": "nonpayable",
            "type": "function"
        }
    ],
    "bytecode": "0x60808060405234603e575f80546001600160a01b0319163390811782558152600260205260409020805460ff19166001179055610e8d90816100438239f35b5f80fdfe60806040526004361015610011575f80fd5b5f3560e01c806313373c6c146105ca57806343f34b2714610559578063499a4ada1461051c57806357a096a1146104495780637acc0b20146102c45780638da5cb5b1461029d578063c21f9b9914610221578063e0f6ef87146102045763edf2c0331461007c575f80fd5b346102005760a0366003190112610200576004356024356001600160401b038111610200576100af9036906004016109e3565b906044356001600160401b038111610200576100cf9036906004016109e3565b6064356001600160401b038111610200576100ee9036906004016109e3565b926084356001600160401b0381116102005761010e9036906004016109e3565b90835f52600460205260405f208054156101f15761013733610132600e8401610d71565b610e17565b156101e3576007810180549660ff8860a01c166101d45781546001600160a01b03191633179091556101a294600b9361019c9291610193919061017d9060108701610bcf565b61018a3360088701610cf0565b60098501610d31565b600a8301610d31565b01610d31565b33916001600160a01b0316907fcef86d37ba3dc1d682967cde44d8050488734bf53166725b220b4d2e515e9e935f80a4005b631b297ae360e21b5f5260045ffd5b6282b42960e81b5f5260045ffd5b6379de4af560e01b5f5260045ffd5b5f80fd5b34610200575f366003190112610200576020600154604051908152f35b3461020057602036600319011261020057600435805f52600460205260405f208054156101f1576007018054336001600160a01b038216036101e35760ff8160a01c166101d45760ff60a01b1916600160a01b1790557f3473c2d98208cbe519d24c7336288e8321fc3849abaca8e91d4aa7bee561cc4f5f80a2005b34610200575f366003190112610200575f546040516001600160a01b039091168152602090f35b34610200576020366003190112610200576004355f52600460205260405f208054600182016102f290610b19565b916102ff60028201610b19565b9061030c60038201610b19565b61031860048301610b19565b61032460058401610b19565b61033060068501610b19565b600785015491610342600c8701610b19565b9361034f600d8801610b19565b9561035c600f8901610b19565b9760100161036990610b19565b986040519b8c9b8c5260208c016101a090526101a08c0161038991610a65565b8b810360408d015261039a91610a65565b8a810360608c01526103ab91610a65565b89810360808b01526103bc91610a65565b88810360a08a01526103cd91610a65565b87810360c08901526103de91610a65565b90600160a01b60019003811660e088015260a01c60ff16151561010087015285810361012087015261040f91610a65565b84810361014086015261042191610a65565b83810361016085015261043391610a65565b82810361018084015261044591610a65565b0390f35b34610200576020366003190112610200576004355f52600460205260405f208054156101f15761047b60088201610d71565b9061048860098201610dc2565b906104a1600b61049a600a8401610dc2565b9201610dc2565b906040519260808401608085528551809152602060a086019601905f5b8181106104fd578680610445886104ef896104e18e8b8782036020890152610a89565b908582036040870152610a89565b908382036060850152610a89565b82516001600160a01b03168852602097880197909201916001016104be565b34610200576020366003190112610200576001600160a01b0361053d610a4f565b165f526002602052602060ff60405f2054166040519015158152f35b3461020057602036600319011261020057610572610a4f565b5f546001600160a01b031633036101e3576001600160a01b03165f818152600260205260408120805460ff191660011790557f5e048240fbceca23ebdfa6f47259584abae5efdc67fd92f82e007d0581b7cd029080a2005b3461020057610160366003190112610200576004356001600160401b038111610200576105fb9036906004016109e3565b6024356001600160401b0381116102005761061a9036906004016109e3565b906044356001600160401b0381116102005761063a9036906004016109e3565b6064356001600160401b038111610200576106599036906004016109e3565b926084356001600160401b038111610200576106799036906004016109e3565b9060a4356001600160401b038111610200576106999036906004016109e3565b9160c4356001600160401b038111610200576106b99036906004016109e3565b60e4356001600160401b038111610200576106d89036906004016109e3565b91610104356001600160401b038111610200576106f99036906004016109e3565b9261012435906001600160401b03821161020057366023830112156102005781600401359261072784610a38565b9261073560405194856109c2565b84845260208401906024829660051b8201019036821161020057602401915b8183106109a257505050610144356001600160401b0381116102005761077e9036906004016109e3565b9a335f52600260205260ff60405f205416156101e3578a99604051808c516020819e019d8e835e8101600381520360200190205460ff16610993576001545f19811461097f576001016001558a8c604051918291518091835e81016003815203602001902060ff19815416600117905560015498895f52600460205260405f20998a558c60018b019061081091610bcf565b61081d9060028b01610bcf565b61082a9060038a01610bcf565b6108379060048901610bcf565b6108449060068801610bcf565b6108518760058801610bcf565b6007860180546001600160a01b0319163317905561087290600d8701610bcf565b61087f84600c8701610bcf565b600e85019051916001600160401b03831161096b57600160401b831161096b57815483835580841061094f575b50905f5260205f205f5b83811061093257505050509161019c600b926101936108dd969561017d8b600f8701610bcf565b60015491604051918291518091835e81015f8152039020907f1267dd4d0d264b3bf6bf5e39465603994624f59a6abf77565f6df04750ca7e92604051602081528061092d33966020830190610a65565b0390a4005b82516001600160a01b0316818301556020909201916001016108b6565b61096590835f528460205f209182019101610bb9565b8a6108ac565b634e487b7160e01b5f52604160045260245ffd5b634e487b7160e01b5f52601160045260245ffd5b63c6deceb360e01b5f5260045ffd5b82356001600160a01b038116810361020057815260209283019201610754565b90601f801991011681019081106001600160401b0382111761096b57604052565b81601f82011215610200578035906001600160401b03821161096b5760405192610a17601f8401601f1916602001856109c2565b8284526020838301011161020057815f926020809301838601378301015290565b6001600160401b03811161096b5760051b60200190565b600435906001600160a01b038216820361020057565b805180835260209291819084018484015e5f828201840152601f01601f1916010190565b9080602083519182815201916020808360051b8301019401925f915b838310610ab457505050505090565b9091929394602080610ad2600193601f198682030187528951610a65565b97019301930191939290610aa5565b90600182811c92168015610b0f575b6020831014610afb57565b634e487b7160e01b5f52602260045260245ffd5b91607f1691610af0565b9060405191825f825492610b2c84610ae1565b8084529360018116908115610b975750600114610b53575b50610b51925003836109c2565b565b90505f9291925260205f20905f915b818310610b7b575050906020610b51928201015f610b44565b6020919350806001915483858901015201910190918492610b62565b905060209250610b5194915060ff191682840152151560051b8201015f610b44565b818110610bc4575050565b5f8155600101610bb9565b91909182516001600160401b03811161096b57610bec8254610ae1565b601f8111610c8c575b506020601f8211600114610c2e57819293945f92610c23575b50508160011b915f199060031b1c1916179055565b015190505f80610c0e565b601f19821690835f52805f20915f5b818110610c7457509583600195969710610c5c575b505050811b019055565b01515f1960f88460031b161c191690555f8080610c52565b9192602060018192868b015181550194019201610c3d565b610cb790835f5260205f20601f840160051c81019160208510610cbd575b601f0160051c0190610bb9565b5f610bf5565b9091508190610caa565b8054821015610cdc575f5260205f2001905f90565b634e487b7160e01b5f52603260045260245ffd5b8054600160401b81101561096b57610d0d91600182018155610cc7565b81546001600160a01b0393841660039290921b91821b9390911b1916919091179055565b8054600160401b81101561096b57610d4e91600182018155610cc7565b919091610d5e57610b5191610bcf565b634e487b7160e01b5f525f60045260245ffd5b90604051918281549182825260208201905f5260205f20925f5b818110610da0575050610b51925003836109c2565b84546001600160a01b0316835260019485019487945060209093019201610d8b565b908154610dce81610a38565b92610ddc60405194856109c2565b81845260208401905f5260205f205f915b838310610dfa5750505050565b600160208192610e0985610b19565b815201920192019190610ded565b905f5b8251811015610e5057600581901b8301602001516001600160a01b03838116911614610e4857600101610e1a565b505050600190565b5050505f9056fea26469706673582212200da35b369a3a89e0674399967210f896f4b2197d1bbe171b4852636aa3e73eb564736f6c634300081c0033",
    "linkReferences": {},
    "deployedLinkReferences": {},
    "immutableReferences": {},
    "inputSourceName": "project/contracts/Product.sol",
    "buildInfoId": "solc-0_8_28-c665fec26c7f9c31018ba9d8d207e1f9dda219df"
}